:100000000C9461000C947E000C947E000C947E0095
:100010000C947E000C947E000C947E000C947E0068
:100020000C947E000C947E000C947E000C947E0058
:100030000C947E000C947E000C947E000C947E0048
:100040000C948D010C947E000C947E000C947E0028
:100050000C947E000C947E000C947E000C947E0028
:100060000C947E000C947E00000000002400270009
:100070002A0000000000250028002B0000000000DE
:1000800023002600290004040404040404040202DA
:100090000202020203030303030301020408102007
:1000A0004080010204081020010204081020000012
:1000B0000008000201000003040700000000000027
:1000C000000011241FBECFEFD8E0DEBFCDBF13E08C
:1000D000A0E0B1E0E0EAF7E002C005900D92A4359F
:1000E000B107D9F723E0A4E5B3E001C01D92A5361E
:1000F000B207E1F70E94D7010C94CE030C940000E4
:10010000833081F028F4813099F08230A1F0089595
:100110008730A9F08830B9F08430D1F48091800024
:100120008F7D03C0809180008F7780938000089539
:1001300084B58F7702C084B58F7D84BD089580918A
:10014000B0008F7703C08091B0008F7D8093B000A6
:1001500008951F93CF93DF93282F30E0F901E255E4
:10016000FF4F8491F901E656FF4FD491F901EA5708
:10017000FF4FC491CC23C9F0162F81110E9480003B
:10018000EC2FF0E0EE0FFF1FEE58FF4FA591B4915A
:100190008FB7F894111105C09C91ED2FE095E923DC
:1001A00002C0EC91ED2BEC938FBFDF91CF911F91AB
:1001B0000895CF93DF9390E0FC01E656FF4F249122
:1001C000FC01EA57FF4F8491882361F190E0880F8A
:1001D000991FFC01E859FF4FC591D491FC01EE58DD
:1001E000FF4FA591B491611109C09FB7F894888120
:1001F000209582238883EC912E230BC0623061F41A
:100200009FB7F8943881822F809583238883EC915F
:100210002E2B2C939FBF06C08FB7F894E8812E2B0E
:1002200028838FBFDF91CF9108953FB7F8948091D5
:10023000550390915603A0915703B091580326B5EA
:10024000A89B05C02F3F19F00196A11DB11D3FBF0E
:10025000BA2FA92F982F8827820F911DA11DB11D9C
:10026000BC01CD0142E0660F771F881F991F4A9598
:10027000D1F708958F929F92AF92BF92CF92DF9263
:10028000EF92FF926B017C010E9415014B015C0112
:10029000C114D104E104F104F1F00E941501DC0164
:1002A000CB0188199909AA09BB09883E9340A10589
:1002B000B10570F321E0C21AD108E108F10888EE17
:1002C000880E83E0981EA11CB11CC114D104E10466
:1002D000F10419F7DDCFFF90EF90DF90CF90BF9042
:1002E000AF909F908F9008950F931F93CF93DF93BC
:1002F0008C01C8E1D3E0F3E0C033DF0749F0F80137
:1003000060810E5F1F4F888122960E94A900F3CF63
:10031000DF91CF911F910F9108951F920F920FB609
:100320000F9211242F933F938F939F93AF93BF937B
:100330008091590390915A03A0915B03B0915C03A3
:100340003091540323E0230F2D3720F40196A11D93
:10035000B11D05C026E8230F0296A11DB11D2093F3
:1003600054038093590390935A03A0935B03B09373
:100370005C038091550390915603A0915703B0916F
:1003800058030196A11DB11D809355039093560308
:10039000A0935703B0935803BF91AF919F918F9152
:1003A0003F912F910F900FBE0F901F90189578944A
:1003B00084B5826084BD84B5816084BD85B582606A
:1003C00085BD85B5816085BD80916E00816080931B
:1003D0006E00109281008091810082608093810084
:1003E0008091810081608093810080918000816094
:1003F000809380008091B10084608093B1008091EF
:10040000B00081608093B00080917A008460809316
:100410007A0080917A00826080937A0080917A00DD
:10042000816080937A0080917A00806880937A005E
:100430001092C10082E190E090935E0380935D038F
:1004400062E083E10E94D90061E08DE00E94D90062
:1004500061E083E00E94D90061E085E00E94D9005C
:1004600061E087E00E94D90061E089E00E94D90044
:1004700061E08BE00E94D90061E08CE00E94D9002D
:1004800061E082E00E94D90061E084E00E94D9002E
:1004900061E086E00E94D90061E088E00E94D90016
:1004A00061E08AE00E94D90080E592E00E94740138
:1004B00061E082E10E94D90061E082E10E94A9002E
:1004C00001EC10E04DEAE42E40E0F42E59E9C52E8F
:1004D00050E0D52E60E0A62E60E0B62E70E1472EEB
:1004E00077E2572E612C712CF8018491F701D49199
:1004F000F601C491CC23A1F081110E948000EC2F61
:10050000F0E0EE0FFF1FE458FF4FA591B4918C91DE
:10051000D82391E080E009F490E0C92FD82F02C0E1
:10052000C0E0D0E08091160390911703C817D90757
:1005300099F02FB7F8948091590390915A03A091A4
:100540005B03B0915C032FBF8093610390936203C0
:10055000A0936303B09364032FB7F8948091590379
:1005600090915A03A0915B03B0915C032FBF40911F
:100570006103509162036091630370916403841B73
:10058000950BA60BB70BC397A105B105B8F18091E8
:10059000140390911503C817D90781F1D09315035F
:1005A000C0931403209751F580915F0390916003ED
:1005B00001969093600380935F0320915D033091D7
:1005C0005E038217930764F01092600310925F033A
:1005D0004092100350921103609212037092130321
:1005E00060E082E10E94A90064E670E080E090E0B3
:1005F0000E943A0161E082E10E94A90080915F03BC
:1006000090916003009709F0B5C08091100390911C
:100610001103A0911203B09113030197A109B1092D
:10062000B7FD09C08093100390931103A0931203A8
:10063000B093130308C040921003509211036092CC
:100640001203709213038091100390911103A091F3
:100650001203B0911303803AFFE09F07A105B10593
:1006600009F47AC0E4F58835E7E09E07A105B105F5
:1006700009F475C0BCF4823127E09207A105B105E9
:1006800009F46DC08632E7E09E07A105B10509F4C3
:1006900063C084389340A105B10509F064C088E6C1
:1006A00092E05FC0803D2CE09207A105B10509F4FE
:1006B00056C03CF48E3E9740A105B10509F44CC0EC
:1006C00052C0843E2CE09207A105B10509F444C054
:1006D00082389F40A105B10509F441C044C0883566
:1006E000FBE19F07A105B10571F194F48838E3E1BE
:1006F0009E07A105B10581F18632FBE19F07A105A7
:10070000B10521F184379341A105B10561F521C0FF
:100710008832E3E29E07A105B105F1F044F484318B
:100720009342A105B105F9F488EC92E01AC08C3F20
:10073000E6E29E07A105B10561F08F309742A10561
:10074000B10551F010C080EB92E00BC088E992E057
:1007500008C080EE92E005C088EF92E002C080E819
:1007600092E00E94740163E070E080E090E00E94FB
:100770003A0109C0880F991FFC01E05DFC4F8081A0
:1007800091810E947401D0931703C0931603A114A2
:10079000B10409F4A9CE0E940000A6CEF894FFCFC0
:1007A0000100010001000000000001000100010043
:1007B0000100000001000000000000000100010035
:1007C0000100010000000100000001000100010023
:1007D0000000000000000100010000000100010015
:1007E0000100010001000100010001000000010002
:1007F00001000100010001000000000001000000F4
:1008000001000100010001000100010000000100E1
:1008100000000000010000000100010000000000D5
:1008200000000100010001000000010001000000C3
:1008300001000100010000000000000000000100B4
:1008400001000000010001000100010001000100A1
:100850000100010001000100000000000100010092
:100860000100010001000100000000000000010083
:100870000100010000000100000000000100010073
:100880000100010001000000010001000000010062
:100890000000000001000100010000000100010053
:1008A0000000010001000000000000000100010044
:1008B0000000000001000000010001000000010034
:1008C0000000000001000100000000000100000025
:1008D0000100010000000100000000000000000015
:1008E0000000000001000100010001000100010002
:1008F00001000100010001000100010001000100F0
:1009000001000100010001000000000001000100E1
:1009100001000000010001000000010001000000D2
:1009200000000000010001000100010000000100C2
:1009300000000100010001000000000000000000B4
:1009400001000100010000000100010000000100A1
:10095000010001000100010001000100010001008F
:100960000100000001000000000000000000000085
:100970000100010001000000010001000000010071
:100980000000000001000100000000000100000064
:100990000100010000000100010001000100010050
:1009A0000100010001000100010000000100000041
:1009B00010270000010001000D00030005000700E2
:1009C00009000B000C0002000400060008000A00E9
:1009D000500250023802200298020802F001D801A9
:1009E000C001A8019001780160014801B002300106
:0409F00018010001E9
:107E0000112484B714BE81FFF0D085E080938100F7
:107E100082E08093C00088E18093C10086E0809377
:107E2000C20080E18093C4008EE0C9D0259A86E02C
:107E300020E33CEF91E0309385002093840096BBD3
:107E4000B09BFECF1D9AA8958150A9F7CC24DD24C4
:107E500088248394B5E0AB2EA1E19A2EF3E0BF2EE7
:107E6000A2D0813461F49FD0082FAFD0023811F036
:107E7000013811F484E001C083E08DD089C08234E0
:107E800011F484E103C0853419F485E0A6D080C0E4
:107E9000853579F488D0E82EFF2485D0082F10E0AE
:107EA000102F00270E291F29000F111F8ED06801E7
:107EB0006FC0863521F484E090D080E0DECF843638
:107EC00009F040C070D06FD0082F6DD080E0C81688
:107ED00080E7D80618F4F601B7BEE895C0E0D1E017
:107EE00062D089930C17E1F7F0E0CF16F0E7DF06D8
:107EF00018F0F601B7BEE89568D007B600FCFDCFD4
:107F0000A601A0E0B1E02C9130E011968C91119780
:107F100090E0982F8827822B932B1296FA010C0160
:107F200087BEE89511244E5F5F4FF1E0A038BF0790
:107F300051F7F601A7BEE89507B600FCFDCF97BE46
:107F4000E89526C08437B1F42ED02DD0F82E2BD052
:107F50003CD0F601EF2C8F010F5F1F4F84911BD097
:107F6000EA94F801C1F70894C11CD11CFA94CF0C13
:107F7000D11C0EC0853739F428D08EE10CD085E9AC
:107F80000AD08FE07ACF813511F488E018D01DD067
:107F900080E101D065CF982F8091C00085FFFCCF94
:107FA0009093C60008958091C00087FFFCCF809118
:107FB000C00084FD01C0A8958091C6000895E0E648
:107FC000F0E098E1908380830895EDDF803219F02E
:107FD00088E0F5DFFFCF84E1DECF1F93182FE3DFCA
:107FE0001150E9F7F2DF1F91089580E0E8DFEE27F6
:047FF000FF270994CA
:027FFE00040479
:0400000300007E007B
:00000001FF
